:100000000C9434000C9449000C9449000C94490061
:100010000C9449000C9449000C9449000C9449003C
:100020000C9449000C9449000C9449000C9449002C
:100030000C9449000C9449000C9449000C9449001C
:100040000C9449000C9449000C9449000C9449000C
:100050000C9449000C9449000C9449000C944900FC
:100060000C9449000C94490011241FBECFEFD8E036
:10007000DEBFCDBF11E0A0E0B1E0E6E1F9E002C0F3
:1000800005900D92A030B107D9F70E9421040C947D
:1000900089040C940000E9EBF0E0808181608083AA
:1000A00083E08093B8000F9300E80093610000E0C4
:1000B000009361000F91089517B880E388B9E9EBC8
:1000C000F0E080818260808383E08093B8000895AF
:1000D000ECEBF0E080818823ECF76093BB0084E8D0
:1000E0008093BC00ECEBF0E080818823ECF708956E
:1000F00084EA8093BC00ECEBF0E080818823ECF78D
:1001000070E0660F771F6093BB0084E88093BC00AB
:10011000ECEBF0E080818823ECF79091B900987FB8
:1001200021E030E0983111F420E030E0C901089579
:10013000FF920F931F93CF93DF93EC01862F807F65
:10014000F82E80E1689F80011124698165606F2924
:10015000CE010E946800698161606F29CE010E9412
:10016000680069816560602BCE010E94680069812A
:100170006160602BCE010E946800DF91CF911F91DA
:100180000F91FF900895FF920F931F93CF93DF93EA
:10019000EC01862F807FF82E80E1689F800111247A
:1001A000698164606F29CE010E94680069816F29AE
:1001B000CE010E94680069816460602BCE010E94BC
:1001C00068006981602BCE010E946800DF91CF91A9
:1001D0001F910F91FF900895CF93DF93EC016883F7
:1001E00088E08983CE010E9478006FE0CE010E94F2
:1001F000C30060E3CE010E94C30062E2CE010E9410
:10020000C3006CE2CE010E94680068E2CE010E9449
:10021000680061E0CE010E94C30068E2CE010E9446
:10022000C30084E98093BC00DF91CF910895EF92E1
:10023000FF921F93CF93DF931F92CDB7DEB77C0160
:100240000E945C00CE0101960E945C006FE3CE012B
:1002500001960E94780084E98093BC0060E2CE01A0
:1002600001960E947800892B11F410E201C01FE36F
:1002700084E98093BC0061E2CE0101960E9478007F
:10028000892B09F411E284E98093BC0062E2CE017B
:1002900001960E947800892B09F412E284E9809388
:1002A000BC0063E2CE0101960E947800892B09F41C
:1002B00013E284E98093BC0064E2CE0101960E94BF
:1002C0007800892B09F414E284E98093BC0065E28C
:1002D000CE0101960E947800892B09F415E284E989
:1002E0008093BC0066E2CE0101960E947800892BC3
:1002F00009F416E284E98093BC0067E2CE0101961E
:100300000E947800892B09F417E2ECEBF0E084E915
:1003100080838083612FC7010E94EC000F90DF91E2
:10032000CF911F91FF90EF900895EF92FF920F935E
:100330001F93CF93DF93EC01E62E0CEB10E00F2E12
:10034000F4E9FF2EF02DF801F08268810E94780018
:100350006E2DCE010E949800F801F082DF91CF91BE
:100360001F910F91FF90EF900895AF92BF92CF929F
:10037000DF92EF92FF920F931F93CF93DF93EC01E5
:100380006A017B0184E98093BC006881CE010E94F0
:10039000780084E6C816D104E104F10420F460E298
:1003A000CE010E9498008AE0C816D104E104F1044D
:1003B00020F460E2CE010E949800C1148AECD806B5
:1003C0008AE9E8068BE3F80608F424C1C701B60100
:1003D00020E03AEC4AE95BE30E946704A62EB72EC0
:1003E000082F192F60E3620FCE010E949800CA2CDB
:1003F000DB2CE02EF12EC11481EED80685EFE80645
:1004000085E0F806B0F0C701B60120E031EE45EF17
:1004100055E00E946704A62EB72E082F192F60E31F
:10042000620FCE010E949800CA2CDB2CE02EF12E28
:10043000FBC060E3CE010E949800F6C080E8C816B9
:1004400086E9D80688E9E806F104D8F0C701B601C4
:1004500020E836E948E950E00E946704A62EB72E4E
:10046000082F192F60E3620FCE010E949800CA2C5A
:10047000DB2CE02EF12EE2C060E3CE010E9498005A
:10048000DDC080E4C81682E4D8068FE0E806F104F7
:10049000D8F0C701B60120E432E44FE050E00E94FA
:1004A0006704A62EB72E082F192F60E3620FCE0126
:1004B0000E949800CA2CDB2CE02EF12EC9C060E30C
:1004C000CE010E949800C4C080EAC81686E8D8060B
:1004D00081E0E806F104D8F0C701B60120EA36E869
:1004E00041E050E00E946704A62EB72E082F192F76
:1004F00060E3620FCE010E949800CA2CDB2CE02E34
:10050000F12EB0C060E3CE010E949800ABC080E144
:10051000C81687E2D806E104F104D8F0C701B60195
:1005200020E137E240E050E00E946704A62EB72E9B
:10053000082F192F60E3620FCE010E949800CA2C89
:10054000DB2CE02EF12E97C060E3CE010E949800D4
:1005500092C088EEC81683E0D806E104F104D8F012
:10056000C701B60128EE33E040E050E00E94670486
:10057000A62EB72E082F192F60E3620FCE010E941E
:100580009800CA2CDB2CE02EF12E7EC060E3CE0159
:100590000E94980079C084E6C816D104E104F104F1
:1005A00008F482C0C701B60124E630E040E050E024
:1005B0000E946704A62EB72E082F192F60E3620F42
:1005C000CE010E949800CA2CDB2CE02EF12E64C0D4
:1005D00060E3CE010E9498005FC0C701B6012AE027
:1005E00030E040E050E00E946704A62E60E3620F16
:1005F000CE010E949800CA2C04C060E3CE010E9484
:10060000980060E36C0DCE010E94980084E980930D
:10061000BC0052C0C11481EED80685EFE80685E023
:10062000F80608F40BCFEFCE80E8C81686E9D806A6
:1006300088E9E806F10408F009CF1ECF80E4C81667
:1006400082E4D8068FE0E806F10408F022CF37CF25
:1006500080EAC81686E8D80681E0E806F10408F0CA
:100660003BCF50CF80E1C81687E2D806E104F10401
:1006700008F054CF69CF88EEC81683E0D806E104AD
:10068000F10408F06DCF82CF84E6C816D104E104EE
:10069000F10408F087CF9CCF8AE0C816D104E104AA
:1006A000F10408F4AACF99CF8AE0C816D104E10476
:1006B000F10408F4A6CF91CFDF91CF911F910F9154
:1006C000FF90EF90DF90CF90BF90AF900895E0EC57
:1006D000F0E080818823ECF78091C6000895CF92E6
:1006E000DF92EF92FF920F931F93CF93DF9300D08F
:1006F000CDB7DEB76C017B018A01CE0101960E9465
:100700001701F60180E090E040E050E021912C32AA
:1007100011F44F5F5F4F019614161506BCF7F601F2
:10072000E80FF91F808190E0C0979C01220F331FD2
:10073000880F991F880F991F880F991F820F931F89
:10074000218130E020533109820F931FD7018D930F
:100750009C93828190E0C0979C01220F331F880FE9
:10076000991F880F991F880F991F820F931F23814C
:1007700030E020533109820F931FF8019183808369
:1007800068E4CE0101960E949501D7014D915C91DC
:10079000052E000C660B770BCE0101960E94B50169
:1007A0006DE4CE0101960E949501F80140815181CE
:1007B000052E000C660B770BCE0101960E94B50149
:1007C0000F900F90DF91CF911F910F91FF90EF90BD
:1007D000DF90CF900895BC01181619068CF540E003
:1007E00050E092E028EC30E095B9E9EFF0E0319785
:1007F000F1F700C0000015B8EDE8F2E13197F1F72C
:1008000000C000002150310979F74F5F5F4F28EC9D
:1008100030E004C06417750729F7089595B9E3EF30
:10082000F1E03197F1F700C0000015B8EDE8F2E112
:100830003197F1F700C000002150310979F7EACF74
:100840000895CF93DF93CDB7DEB7CA56D1090FB65F
:10085000F894DEBF0FBECDBF8EE084B9CE01019605
:100860000E9417010E944B001092C50087E68093FA
:10087000C400E0ECF0E0808182608083E1ECF0E095
:100880008081806180830E9467038432E1F78E015A
:100890000D5F1F4F7E0183E5E80EF11C0E94670388
:1008A000F80181938F01EE15FF05C1F7AE0147599D
:1008B0005F4FBE0169597F4FCE0103960E946F03BF
:1008C000A9968EAD9FADA9970E94EB03FFCFA1E241
:1008D0001A2EAA1BBB1BFD010DC0AA1FBB1FEE1FBA
:1008E000FF1FA217B307E407F50720F0A21BB30B05
:1008F000E40BF50B661F771F881F991F1A9469F781
:1009000060957095809590959B01AC01BD01CF01DC
:060910000895F894FFCFEA
:00000001FF
